:020000040000FA
:10000000010800F000006208C05D89FD0400FFFFE8
:10001000FFFF400600022511262CDC020A00C00367
:080020000000C0010000000215
:1003C000690200000018010000800200D007C4206C
:1003D000001C026000D806000020026000D8060061
:1003E0000024026000D806000044036000200000E2
:1003F0000003010001823D00FF0428325A7D000104
:10040000000031000358FF7F00D8FCFF00F8FFFF19
:1004100000C701003A00003A0000C901003900009D
:10042000390000CA0100390000390000CA01003952
:100430000000390000D83200FF0C460000003000F8
:1004400000001D000000130000000C000000080068
:100450000000050000000300000002000000010091
:10046000000000000000000000000A8800A05E20DC
:10047000007047000010B5134C42F2043020820097
:10048000F054F96068104920F40010606001200801
:10049000700E4908600F490E48086010490E484820
:1004A00067BDE81040012011F664BD10B50C480D81
:1004B0004942F646FAAFF243000B4908600C490B7B
:1004C00048086010BD983020001812200028122023
:1004D000005D64200038132000596020007454200F
:1004E00000C06720002C000000745E2000EC672034
:1004F00000501320000A9008245F20000649097864
:10050000002907D105490978002903D000F00F0020
:1005100025F684FE25F694FEB8672000B967200012
:100520001DD0114D002618B1AE6610490E7019E0AD
:100530002821A86E0E4F40183968884212D2FAF569
:100540003DFC8046FAF53DFC0A480078C00704D11E
:10055000064901230B7025F6EAF925F6F6F9064956
:1005600001230B70BDE8F081200F2000B867200048
:10057000FC0E200043152000B967200000F026F88B
:1005800025F60EFA04464FF0000184F87E108069CB
:100590000FF6DEB940F2311068802EF6BBBD40F296
:1005A000311060802EF646BF00F021B9062900D236
:1005B00006213FF687BC0000BDE8304000F080B95E
:1005C000162130F66CF930F6B0B90000F0B54FF4F2
:1005D0004815A869012822D9286900F00F000228CF
:1005E0001DD00F4A1078012819D10F490D4809680C
:1005F00001270023814211D050780C4E08B9A86918
:1006000009E0A9693068401A00EB4000C41700EB0C
:10061000947001EBA0003060EB6157701370F0BD77
:10062000B86720007C5B2000782F2000A00F2000FE
:10063000017C0A2904D1C17C022901D10321C174A2
:10064000002070472DE9F041404F0446866A97F834
:10065000400000286BD1012120461CF68DFD051EAF
:100660004FF0010848DD022D04DB20461EF6C8FCD1
:1006700000285CD1A38C981FA8421EDD3868A042D8
:100680000BD096F8A20010B1401E86F8A200681C9C
:10069000411020461EF62FFC2EE0681CE17B401026
:1006A00021B1716C11B194F8481029B3218E8142A7
:1006B00022D8628E2AB9A6891EB920461CF644FAB1
:1006C0001AE0914200D81146814201D20C2012E07A
:1006D000A17C94F84E2091420ED11D4909788842A0
:1006E0000AD394F8480028B11A480078834201D907
:1006F000242000E03720A07494F85000002816D081
:10070000801E10F0FF0084F8500010D1E07B01281B
:1007100005D0217D4046092901D1002807D12A466C
:100720002046BDE8F041052302211EF695BBBDE839
:10073000F08110B50948084C04602C220849204675
:1007400042F624F9AFF20310606210BD782F20004A
:10075000AA0D2000A30D2000C0672000B40D2000CA
:10076000B0D4040038B5C16904461648C1F3C402C8
:100770004068082A10D3817B012903D1D0E90412F3
:10078000C4E90F1200F110030093C37B827B0021A8
:10079000204639F656F809E042690069C4E90F02BB
:1007A00041F08070E06120462EF601FBE069C00157
:1007B00006D504F13C012046BDE8384038F69CBD22
:1007C00038BD00003C0E200012490A2009780A06B4
:1007D0000CD40620CA0609D405208A0706D40420B2
:1007E0004A0703D40320C90700D1022070470949F2
:1007F0000A2009780A060CD40620CA0609D4052066
:100800008A0706D404204A0703D40320C90700D16D
:1008100002207047F10D2000F0B599B0054600F1B7
:1008200018060C4601A83FF6E3FE294601A83FF64C
:10083000F0FE401C3DD104F134010F4628463FF63E
:10084000E8FE401C35D1314601A83FF6E2FE401CCF
:100850002FD1394630463FF6DCFE401C29D13146C7
:1008600013A843F6A8FD29460DA843F6A4FD2A4681
:100870000DA90DA843F61EFC2A46294607A843F6F3
:10088000E6FB2A4607A907A843F6E1FB07AA04F1FD
:10089000180107A843F69EFB07AA0DA907A843F66F
:1008A000D6FB07A913A83FF6B4FE10B9012019B072
:1008B000F0BD0020FBE70149AEE70000905C20009E
:1008C00010B5002190B00CA80A460B460C4680E8F3
:1008D0001E00554C94F89710C1F3810141B10129D4
:1008E0002AD0022904D1514991E80C5080E80C50DB
:1008F0004E4810304178C1F303028DF8142040882F
:10090000C0F300008DF8150008098DF81600201DB1
:10091000FFF7D1FFA0B1226806AB2832444905A8F1
:100920008DE80F00404A0CAB5432A2F1100101F1E6
:10093000200032F61FFB07E0D4F88C000C90D7E7BC
:10094000062106A832F65BFB06A836F6D5FE0A207D
:1009500084F8900010B010BDF0B50020324E8DB07C
:1009600005AF014602460346346887E80F0096F853
:100970009750C5F3810048B101283ED0022805D127
:10098000E80703D0294810380FC80FC716F8950F8D
:100990008DF81000C5F300008DF8110070788DF807
:1009A000120009AB224A04F1280104A88DE80F00C7
:1009B0001D4A05AB443202F1100101F1100032F67C
:1009C000D9FAB078A6F1950680060AD4301DFFF753
:1009D00072FF30B115491022303909A841F6DFFE07
:1009E00078B1E08C0523C0F38002412120462DF62A
:1009F000A1FC36F665FD0DB0F0BDD6F88C00059073
:100A0000C4E700230093E08C4121C0F3800220461C
:100A10002DF64FFC96F89700800702D536F6C8FFF2
:100A2000E9E7FFF74DFFE6E7C05220008C322000D7
:100A3000545E200010B5B0F801300124C3F3090260
:100A400003F47C431B0A042B0AD0102B13D1012A78
:100A50000BD0022A0CD00C2A0DD100F099F80BE033
:100A60002A2A08D100F0A2F806E000F007F803E017
:100A700000F01AF800E00024204610BD70B50546CD
:100A800000F108041FF686FB454EA071708AA4F899
:100A900007001FF690FB607240F231106081308ACF
:100AA000A0810820E87070BD10B5044690B0002009
:100AB00084F828004021684641F69AFFFF20BF21B4
:100AC0008DF80010CC228DF804208DF801008DF8EF
:100AD00002008DF80500EF228DF806208DF8070042
:100AE0008DF80800F3208DF80900E4208DF80A0045
:100AF0001F208DF80B00F2208DF80C000F208DF8D0
:100B00000D00E8208DF80E00032127208DF803103A
:100B10008DF81000FE2123488DF80F100078F72182
:100B20004207002A01DB4FF000018DF811104FF051
:100B3000830101DB4FF000018DF812104FEA407184
:100B40004FEA21214FEA11618DF813104FF00C018B
:100B500001DB4FF00001102202EAC00211438DF8C0
:100B600014106021C20600D40021C0F340000143EC
:100B700001F001008DF8180008208DF82900217877
:100B80006B46402241F2020038F69CFC10B010BDCA
:100B900001228273044A0221D27BC273C170704762
:100BA00098302000F10D2000A831200070B50546D6
:100BB0004E7A0846A6F10D01032901D3122005E063
:100BC000C01C1FF62DFB040002D10220287070BD4E
:100BD000052120682EF63FFEB5F80100002138F609
:100BE0008FFC002085F82800324631462046BDE8BB
:100BF00070402FF6B7BE00007CB514461D46DDE9F7
:100C00000623CDE900232B4622460CF692FB0A4927
:100C100001607CBD10B50CF6A2FD084901200870EA
:100C200010BD10B50CF6CCFD012011F6ABF8034950
:100C30000020087010BD000000672000E0092000BF
:100C400010B50023FBF5C5FF1E49016010BD10B5AE
:100C50001D4C2068002807D1242010F674F80022CB
:100C60000A21FFF7EDFF206010BD10B5164C20687B
:100C7000002802D1FFF7EBFF206010BD7CB51546C0
:100C80001C46DDE90623032D0ED10679A6420DD0C0
:100C90004679A6420AD0C679A64207D0067AA6426D
:100CA00004D0467AA64201D002207CBDCDE90023C3
:100CB00023462A46FBF590FE7CBDAFF26D0003494A
:100CC0000860704794672000BC672000C4052000BE
:100CD0000000000000000000292C0100792C010018
:100CE0001D2D0100332D01005F2E01007F2E01001C
:100CF000D52E01006D2F01002D300100FB300100C9
:100D00001D2F0100253101003D6620004B662000AB
:100D1000273201007D320100A9320100C3330100F6
:100D2000DF330100EF3301001134010039340100D9
:100D30004934010081340100A5340100C1340100AF
:100D4000E134010001350100333501005D3501005A
:100D5000A5350100AB350100B7350100D9350100DB
:100D6000EF3501000000000000000000A566200033
:100D70004525000059260000A5260000C7260000D2
:100D80002B270000792700000A1400B0672000A07C
:100D90005E2000245F20000000000000000000082A
:100DA0000F000040BC0200DAF170B90000245F209F
:100DB00000080F00012CB30200DAF10CBE0000485D
:100DC0005F2000080F0002A8B30200DAF1FCBD00AA
:100DD00000A45F2000080F000374530100F0F11A13
:100DE000BE0000AC5F2000080F0004384B0300D1A8
:100DF000F140BA0000BC5F2000080F0005584E0308
:100E000000D1F1B5B80000C65F2000080F00063819
:100E10004D0300D1F128BA00008C612000080F00BA
:100E200007BC5B0200E0F118BB0000F06120000885
:100E30000F0008E05B0200E0F1F6B90000D05F208F
:100E400000080F0009E4580400C0F176BB0000D48C
:100E50005F2000080F000A74D40300C8F184BF00AB
:100E60000080632000080F000B58D10300C8F14236
:100E7000BF0000E05F2000080F000C4C630300CFB0
:100E8000F14CBE0000E85F20000A0500F10D2000D3
:100E9000870B0400DA5E200018010000DC0400006B
:100EA0001BB700B602000111410C004B6579636865
:100EB000726F6E204B3200A714004000F00000FF5C
:100EC0000F0000B07F0000000000000000001621AD
:100ED0000049544346447363194344203838373536
:100EE00020352E3020413036283230313931323100
:100EF0003229A0550000254001FE0100010100013A
:100F0000FFFFFFFFFF040000030004B40032001ED7
:100F1000003C001E000100C0121E0000200105025E
:100F200001014000000801800000081E330200019A
:100F300000401F01F22B0000000301E20402000048
:100F40001027002001BCCC000000A91A006C300062
:100F5000001B33000040000000141E0802B0040013
:100F600000000000000000B9180009B80B000000E4
:100F70002A7515088007F00596056403080001002E
:100F80000000B30600E80318030122B48600010044
:100F9000E803000000001200120001000100010738
:100FA0000000020000000000011612001200010003
:100FB000010001070000F100000000000000000037
:100FC0000000000000000107000000000000000019
:100FD0000000000000000000000000000000000011
:100FE0000000000000000000000000000000000001
:100FF00000000000000000000000000000000000F1
:1010000000000000000000000000000000000000E0
:1010100000000000B53700000000000000000000E4
:101020000000000000000001070000F000000000C8
:1010300000000000000000000000000107000000A8
:101040000000000000000000000000000000A110EF
:101050000000010001000000000003040002010084
:10106000017E040022000000A50C000004100033E3
:10107000030000C5000200A218000106021504FFCB
:101080000100900303010003050006040001320182
:10109000082C7206000B0000000001A320010000D4
:1010A000000000000000024000000000013E0114AA
:1010B000012B01040303011D01830135011E011AE7
:1010C000013901160000011B01840316011F0108EC
:1010D000031201070306010601880315012001150B
:1010E00001170109010A0119010501220121011855
:1010F000011C010D010B0110011101230124010C40
:101100000130010E013F01360187012E0125011238
:10111000030B010F000001370165030E01260113C7
:10112000012F0133013401320138012D0127000064
:10113000000002010208000002800000030F0114F9
:10114000012A013103100128030F030C0311015F71
:10115000015C0159012C03100151031400000160CE
:101160000202022001620154014F014900000161A5
:101170000204015B015201550150014B014E015720
:1011800001000158015200000150014A014D0000C8
:101190000202022000000000000000000000000029
:1011A00002080308030D0307030C031003060000E5
:1011B0000000000000000000000000000000A41873
:1011C00000063A073B083C093D0A3E0B3F0C400D28
:1011D000410E420F4310441145B2070001000419AB
:1011E000262400BC020002040A5000EC67200070B4
:1011F000B50C4B0C480D4E0D4D0E4C834204D0D314
:10120000E900109A6841F626FD2946304641F6B1BC
:10121000FD3AF63AFB08B907480460BDE8704001A2
:10122000F0D8BE788E2000788E2000D88F20003C29
:1012300000000014902000501320000A4C2638684B
:1012400020002DE9F04F89B0FFF750FF10F687FF1F
:101250000446602011F6AFF90CB1204600E04C487E
:1012600009F60BFF98200FF687FF4A4900220091EC
:101270004A4B114601F05BF8044634200FF67CFF20
:1012800003224649CDE900120823454A2146FFF7CB
:10129000CCFE11F6D0FBDFF80CA1434E8346DAF802
:1012A000005005F11001CAF80010F07DB17D4843EF
:1012B00026F6BCFC0146F37DB27D284610F680F888
:1012C00005464FF4B6700FF657FF814628200FF6FB
:1012D00053FF43F2D40200210FF67FFE8046042024
:1012E0000FF64AFFF9F5F9FF074611F6A4FB009047
:1012F00004200FF641FFFAF518F8064611F6DBFD5B
:10130000019074200FF638FF029020460EF6CDF9BA
:101310000146002322460298FBF567FF0022CDE933
:101320000402019B0099CDE90263CDE900712346D7
:1013300042462946484600F093F81C49044601609D
:101340001C4806AB07C883E80700002006AA115C0A
:10135000491E1154401CC0B20C28F8D3204600F09E
:1013600090FF1449DAF800000968884200D9FEE7C6
:101370002068816820468847DBF80000C16858462D
:10138000884702212046FAF58EFF09B02046BDE8C5
:10139000F08FE085200010B00400F0AF0400F808E2
:1013A000200058082000B067200038042000048D79
:1013B0002000608E2000B4672000FAF554BB08219D
:1013C00080F84611002180F8471180F8481180F814
:1013D000491170470C2180F84A1100210A46431830
:1013E000491CC9B283F84B210F29F8D380F85A2140
:1013F000704710B504460020C4F838010A2104F5EE
:101400009E7041F60EFDFE48007884F83C0110BD48
:1014100070B5FC4D04460023D5E90D120FF66EFFA2
:10142000C4F83001D5E90F12002320460FF666FFFD
:10143000C4F8340105F12C000021017041704FF413
:10144000167242800171552084F82C012046FFF766
:10145000D0FF2046FFF7BEFF2046BDE87040AEE754
:10146000F0B587B0DDE90C45DDE90E67DDE910CEAA
:101470008DE8F050FAF52FFDE449016000F5867023
:1014800001F029F9103001F082F8083001F029FB51
:10149000A0F5927411F6ACF9DB494861606C886183
:1014A00004F58E70C8611038086218304862606FA9
:1014B000886201F06AFCC4F820012046FFF7A8FF0B
:1014C0002246AFF20B11D4F8200101F067FC012194
:1014D000D4F8200101F07CFC07B02046F0BDFEB539
:1014E000022ADDE9084513D1C64EB6799E4209D1DC
:1014F00001686D1CAAB2D1F8C03003B0611EBDE80E
:10150000F0401847B52B03D1BF4F01262C373E7151
:1015100000268DE87000FAF55EF9FEBD70B5044650
:10152000FAF53AFDB84D0021E86901F03AF80122D8
:10153000742104F5967010F6C2FC94F82C0155281D
:1015400004D0AA2802D0552084F82C01B0490220EA
:101550000870686A01F0F1FAAB4801227521C01CDD
:1015600010F6ADFCE878012801D00020E87011F6F3
:10157000A2FC11F6DFFC002811D000224FF4847188
:10158000286A01F092F9686A017801F0E8FA002807
:1015900005D0606C01684969BDE87040084770BDBE
:1015A0002DE9F04104460020012504F1E107BE1CAD
:1015B000C4F8380109E094F8E300FE280FD00422B3
:1015C00039462046FAF58EFA0025D4F884000168E1
:1015D0008A68314690470028EDD1BDE8F08125B9F1
:1015E000042239462046FAF57DFA0125EDE710B5CB
:1015F0000446FAF5BCF9606C0079022804D0BDE815
:101600001040002010F6D2BE10BD7E48C2788A423B
:1016100005D0C17001227521C01C10F673BC704743
:10162000794A4FF416712C325180D0F830014FF4C2
:101630007A710FF63EBE7FB5734E00250446C0F8A2
:1016400038510F220121706911F66AF900282DD056
:101650000095019502950395C4F838516946D4F870
:10166000200101F0E5FBC4F838012046FFF7D8FF60
:101670009DF800000121A12806D0A22817D0A32898
:101680001FD0A62812D127E084F8C4109DF80100CD
:1016900084F83D01DDF80300C4F83F019DF8070020
:1016A00084F843019DF8080084F8450198E084F827
:1016B0005A110F2204F24B100DF1010141F6CEFA3E
:1016C0008EE084F849119DF8010084F848019DF8E6
:1016D000020084F8470183E0C4F838519DF8010006
:1016E000582802D051280FD086E09DF8020001282A
:1016F0006FD1B0690168D1F8F411884702286FD022
:10170000B0690168896928E09DF80200742861D0F9
:101710000EDC04F59673652832D004DC612854D0C1
:10172000622869D111E0682837D0702864D11DE0A3
:1017300082281FD004DC75284ED081285CD119E0A6
:10174000832817D0892857D109E0706A017801F001
:1017500006FA08B3606C01684969884740E0606C2C
:101760000168D1F880200021904739E0706A01F0CB
:101770006CFA35E000F00F01706A01F049FA2FE0D1
:1017800094F82C01AA2837D0AA2084F82C01012231
:101790007421184610F6B6FB22E094F82C01552867
:1017A0002AD0552084F82C0101227421184610F605
:1017B000A9FBE06C0168496B884788B14FF47A71E6
:1017C000D4F830010FF675FD0AE0B06A01F07EFA38
:1017D00006E011E0002100E001212046FFF715FF9F
:1017E000D4F8380140B10320A4F8E700042204F142
:1017F000E5012046FAF576F94FF4004201217069BF
:1018000007E038042000808E2000A08B20002C04EC
:10181000200004B0BDE8704011F60DB810B50446C4
:10182000406D0168096888472068D0F8C4102046D8
:1018300088472068D0F8C8102046884794F8E90007
:1018400030B12068D0F8B81020468847032010BD7A
:10185000E06B01684968884700B1012094F8CB101B
:1018600041B994F8CA1029B994F8D41011B994F870
:10187000B31001B10221084310BDFA4A13798B421B
:1018800007D011710C329170D0F82001032101F0C2
:1018900008BB704770B50546C06C0168496B884746
:1018A00000282ED0F04CA06A01F029FA30B1286847
:1018B000D0F888102846BDE870400847A06A01F0BB
:1018C000F6F94FF4007630B106212846FFF7D5FF30
:1018D0000022314610E02079062807D1A06A01F0E5
:1018E000EFF9E1498989323188420AD90A2128462B
:1018F000FFF7C3FF32460021206ABDE8704000F0C8
:10190000D4BF70BD70B5044610F65FFE800504D5E7
:10191000606C0168D1F8F810884794F85C00401CAE
:1019200084F85C00012010F646FC2068D0F8A41072
:101930002046884705000DD0606C0DF633FA30B9AB
:10194000C948807818B129462046F9F57CFF204621
:10195000FFF766FE29462046FFF79CFFE06C016812
:10196000496B884740B1606F0168496A88472068C1
:10197000D0F8A81020468847E06C017902290DD0E4
:10198000216C88420AD14DB994F8670030B92068BB
:10199000A16C0022D0F8A03020469847BDE87040E6
:1019A000002010F608BCFAF5C7BC10B5022A01D019
:1019B000042010BDAC4A12786AB9AA4A49780832A4
:1019C00053788B4207D080F8A5105170D0F82001D1
:1019D000022101F066FA002010BDFAF530BC7CB59A
:1019E000044690F84901012810D1002584F8495196
:1019F000CDE90005E06C012303220168CE6A04F5FD
:101A0000A371B04784F8485184F847517CBD7CB538
:101A1000044690F85A01012814D1002584F85A513F
:101A2000CDE90005E06C012310220168CE6A04F5BF
:101A3000A571B0470022A018521CD2B280F84B51B9
:101A40000F2AF8D37CBD70B50446C06C0168496BA1
:101A50008847002821D00A2104F59E7041F6E1F95B
:101A600083480125007884F83C0184F8C45020683C
:101A7000D0F8F810204688472046FFF7ABFC84F8E2
:101A80005A512046FFF7C3FF2046FFF798FC84F821
:101A900049512046BDE87040A1E770BDF8B5714AD4
:101AA0000546D0F820011032032101F0FAF9704800
:101AB0006D4C00210288206A00F0F7FE2846FFF7EF
:101AC000C2FF012086030146009033460C22606964
:101AD00010F61BFE002000903346062201216069AB
:101AE00010F613FE2846BDE8F840F9F5ECBF10B536
:101AF00004460068D0F8F410204688472068D0F8E3
:101B00001011204688472068D0F81C1120468847CD
:101B10002068D0F84411204688472068D0F83C114E
:101B200020468847002084F8C90084F8C70084F85C
:101B3000C80004F8C40FA070607010BD10B5044652
:101B400090F82C11D0F83001AA2911D0464A2C3235
:101B5000518889B1491E51804FF47A710FF6A9FB63
:101B6000E06C0168496B884700280DD1D4F830013A
:101B7000BDE810400FF6B1BB0FF6AFFB3A488069E5
:101B8000016889698847EBE710BD70B50446D0F855
:101B900034010FF6A2FB334D0026E878012825D149
:101BA000E06C0168496B884700B3687804281DD24F
:101BB000022802D20121297000E02E7000F00101FC
:101BC000206839230022D0F808612046B0472068F9
:101BD000D0F8F810204688476878401C6870D4F820
:101BE0003401BDE8704064210FF663BB6E7070BDB8
:101BF00030B590F83D21012502EA030451B1002CD3
:101C000007D09A4380F83D2100F8C45FC179491E8E
:101C1000C17130BD002CFCD11A4380F83D2100F881
:101C2000C45FC179491CF3E730B4002190F8CA20A1
:101C300006E0441894F83F419C4211D0491CC9B2B7
:101C40008A42F6D80A4A52788A4214D9014481F865
:101C50003F3110F8CA1F491C00F806190121017014
:101C600030BC70470000808E2000C805200038047A
:101C70002000688F20000168D1F80C1130BC0847A3
:101C8000F0B500210E46012700F23F1512E044187E
:101C900094F83FC19C450BD1521ED2B280F8CA20A5
:101CA000525D84F83F2190F8CA20565580F8C470E0
:101CB000491CC9B290F8CA208A42E8D8F0BD7CB568
:101CC000044690F8C40001280CD1002184F8C41007
:101CD000CDE90001E06C01230A220168CD6A04F518
:101CE0009E71A8470FF66AFDC4F8D0007CBD10B500
:101CF0000446002084F8C7002046FAF50FFD204670
:101D0000FFF76DFE2046BDE8104080E670B5044642
:101D100090F8C400002876D094F83F0100260028EF
:101D20006FD004F1EC052A2813D004DC282824D035
:101D3000292804D11AE04C280BD058281DD0272878
:101D400041D062283FD0A0F11E0108293DD81D389E
:101D500040E094F8EA00A8B3401E84F8EA00206846
:101D60000221D0F85021204690474AE084F8EA60EA
:101D700020680321D0F85021F5E794F8E900802885
:101D800019D020680421D0F850212046904794F8BB
:101D9000EA004655606C94F8EA100268D2F8A83060
:101DA0002A46984784F8E9602068D0F8B0102046A9
:101DB000BDE870400847606C94F8EA100268D2F8F9
:101DC000A430EDE71DE0002007E0A0F1590108294B
:101DD00017D85838C0B2FF2813D03030C1B294F8A9
:101DE000EA0094F8EB2090420BD2415594F8EA00B7
:101DF000401C84F8EA0020680121D0F85021B2E7A5
:101E000001E084F8C46070BD0000FB4A5170FA49DB
:101E1000428818314A8002880A8082888A80C08875
:101E2000C8807047F54A52780A70F34918314A88D9
:101E300042800A8802808A888280C988C18070476F
:101E4000EE4908707047EC480078704730B415468A
:101E50000C4602462946A4F1807030BCA02325F62A
:101E6000ADBA30B415460C4602462946A4F180703E
:101E700030BCA02325F686BA10B5E049016000F514
:101E8000927000F035FE083800F082FB103800F048
:101E90003EFCBDE81040A0F58670FAF574B810B5A8
:101EA000FFF7EAFFBDE810400FF68AB910B5044607
:101EB000D0F864014FF416710FF6FBF9022084F894
:101EC0006801CD4830210A30417001218170032121
:101ED00084F85E11C4F8600104F5AE712046BDE8D7
:101EE00010400822F9F5FEBD2DE9FC4104460868C2
:101EF00000908888ADF80400C04E9DF80470FF255E
:101F00005C36202F1DD82021B01D40F636FFBA4A7E
:101F100010895188884204D1BDF80230D588AB427F
:101F20002FD3884204D2BDF802009188884228D37A
:101F3000BDF802001E2824D000252021B01D40F647
:101F40001CFFBDF80200B080F770F7840022B118C2
:101F5000F08C8979521C0844D2B2F084202AF6D33E
:101F6000C4F86061ADB10220B070032084F85E0156
:101F700002B004F5AE712046BDE8F0410822F9F543
:101F8000B1BDBDF802103A46B01DFFF76AFFC5B2F9
:101F9000D7E70120B0702820E8E7F0B5974D044658
:101FA0000A358BB027206870944E0220A8703078D4
:101FB000B8B32822684640F651FE9DF80320FF2161
:101FC000104600236F4607EB030C5B1C9CF806C011
:101FD000DBB2604480B2202BF5D3BDF826308342BB
:101FE0001CD1202A1AD830897188884205D1BDF8C1
:101FF0000430B6F806C063450AD3884204D0BDF861
:102000000400B188884203D3BDF804001E2806D11D
:10201000BDF80410B81DFFF719FFC1B209B90120BE
:10202000A870032084F85E01C4F860510BB004F579
:10203000AE712046BDE8F0400822F9F553BDF8B571
:1020400004460888ADF80000887800236D49012512
:1020500003268DF80200012821D002281FD001F1AB
:102060000800891DFFF7DEFE84F87030606C01689F
:10207000D1F8E01088470168C96D88475F4826217C
:102080000A3008224170857084F85E61C4F86001EE
:1020900004F5AE712046BDE8F840F9F523BD564A77
:1020A000012010708B718D81CB810C2048810881BB
:1020B0002068D0F8B010204688472046F9F585FC06
:1020C0001E21D4F864010FF6EBF884F86861CDE7BF
:1020D00038B50446406F03226B460168CD68012184
:1020E000A847454D4C3508B140782871606C0DF615
:1020F000DCFA4149026841F8522F8088888024F632
:10210000FAFF10B924F6F4FF2873102084F85E015A
:10211000082204F5AE712046C4F86051F9F5E2FCDE
:1021200038BD0E2180F85E1134493E31C0F860118F
:10213000082200F5AE71F9F5D5BCF8B5044668463D
:1021400002F637FF009840F66AFD1C2801D91C20D2
:1021500002E0009840F663FD284EC5B220362A46BC
:10216000B01C009940F67AFDAD1C84F85E5108223F
:1021700004F5AE712046C4F86061F9F5B3FCF8BD12
:1021800070B51D460446B22954D1022A52D1606C62
:102190000168CA6801219047E06C0168CA680121A2
:1021A0009047206C0168CA6801219047012010F611
:1021B000CBF81148007838B11E21D4F864010FF62D
:1021C0006FF8032084F868016A78272A23D00ADC94
:1021D000242A18D0252A1AD0262A2BD1294620466F
:1021E000BDE870402BE7292A1AD0302A1DD0402A9A
:1021F00020D12046BDE870406AE7C48E2000A08B45
:102200002000580820002046BDE8704095E7204691
:10221000BDE8704085E729462046BDE87040BCE631
:1022200029462046BDE870405EE629462046BDE8C6
:1022300070403BE670BD7CB50546C06B016809691E
:102240008847040016D02078E02813D12A2134488A
:1022500040F6E7FDA2783248616840F6FFFC0021B5
:102260000120CDE90001E86C01232A220168CC6A33
:102270002C49A047E86B0168496902B0BDE870408D
:10228000084738B50546E02085F85C012648817985
:102290000830FFF7BAFD244C00232846D4E9041285
:1022A0000FF62CF8C5F8640102221E216846FFF7DC
:1022B000D8FDBDF80000208148F2C02060804FF4B6
:1022C0007041A180E08038BD184910B50346002058
:1022D00008701449891D881CFFF7A4FD002083F8AD
:1022E0007000586C0168D1F8E01088470168C96D2A
:1022F000BDE81040084710B50446D0F864010EF65A
:10230000ECFF94F86811022905D0032907D1204673
:10231000BDE81040D8E7BDE810400FF676BE10BD0E
:102320000000D88F200058082000C48E200038B547
:10233000049C00940CF6CEFB04468B48206000F011
:1023400024FDC4F8900089480023D0E905122046F6
:102350000EF6D4FFC4F89400204638BD0DF687BAB7
:1023600010B5FFF7FBFFBDE810400EF629BF10B512
:102370007F4904460020087001F108020321D4F8C7
:10238000900000F08EFD7A484FF41D720121006824
:1023900000F08BFA2046BDE810400DF63CBB70B54E
:1023A00004467249734800250A78006822B10D700E
:1023B00040F21522202102E040F20522002100F027
:1023C00074FA6C48007838B96C486B4A0221457041
:1023D000D4F8900000F065FD606D062806D1634AD0
:1023E00003210C32D4F8900000F05BFD606D0328EF
:1023F00005D1F9F578F80168D1F8B0108847204682
:10240000BDE870400DF694BA70B50546F9F56BF865
:102410000446574871220421006800F046FA686DAE
:10242000032809D12068D0F8B010204688475348C7
:102430000068017800F0EFFB4FF47A71D4F83401B2
:102440000EF637FF2046FFF7EBF84D4900200871E4
:102450004D490120087045490A1D08700321D5F82F
:10246000900000F01EFD2846BDE870400DF663BBED
:1024700010B53E4904460020087001F11002032106
:10248000D4F8900000F00DFD3A4865221021006854
:1024900000F00BFA2046BDE810400DF66FBC70B599
:1024A000044690F87F003849401CC0B284F87F0091
:1024B00091F828100025884206D994F87E00401C27
:1024C00084F87E0084F87F50A06908F68EFF94F8A7
:1024D0007E10884205D9206ABDE8704001210EF6C1
:1024E000CDBEA06801684A6E2146904784F84C50E2
:1024F00094F8800020B1012084F84B0084F88050CB
:102500002068D0F8B8112046BDE87040084710B5E3
:1025100004468A8801F10800105C0209012A03D1EF
:1025200000F00F00032804D02046BDE810400CF650
:10253000ADBC0846FFF567FB2068816E2046BDE80C
:102540001040084710B50446D0F894000EF6C5FEBA
:10255000606D022808D1054AD4F890000C32BDE81D
:102560001040032100F09DBC10BDA0892000488FC1
:102570002000A08E2000838E2000888E2000A48E54
:102580002000AC8E2000828E20007409200070474D
:1025900010B5002204461146104621F686FC20465E
:1025A00010BD30B544480C469FB00178A14244D0DC
:1025B000047011AD3021281D40F633FC3F480068FF
:1025C00011903CB13E48818868460FF6A7FD02ACE9
:1025D00078B115E0684602F6ECFC009840F61FFB67
:1025E000401C8DF84400009840F619FB0246009903
:1025F0000CE00A228DF8072032A1204640F6DFFBCE
:102600009DF807202146501C8DF84400A81C40F678
:1026100025FB0C254820FFF553FA04463420608042
:10262000A58004F10C00342211A940F617FB2046C6
:1026300003F6CBFA2046FFF5E6FA1FB030BD10B521
:102640000121FFF7AEFF214800680168D1F8802022
:10265000BDE81040002110472DE9F041164D11F062
:10266000FF064FF00007C1F3072404D1542C13D008
:10267000902C00D2AF7001201649242C12D0362C99
:1026800008D1002E06D16A78012A03D109780129E0
:1026900000D1A870BDE8F081A9780129EAD1FFF73F
:1026A000CEFFE7E70EB16F70F4E709780129F1D1A9
:1026B0006870EFE70000648F200094892000642C8C
:1026C00020004E6F2056657273696F6E0000988E01
:1026D0002000AC8E200070B5FF4D04460023D5E9E4
:1026E00009120EF60BFE6060D5E90B12002320469E
:1026F0000EF604FEA060D5E90D12002320460EF66A
:10270000FDFDE060002020802880204670BD10B5CF
:10271000002204461146104621F6C7FB204610BD94
:1027200038B5ED4800244FF480430068012539B1E5
:1027300001290ED0022909D18AB10094012202E0B8
:102740002AB100950C2201210FF6DFFF38BD00945D
:10275000F8E712B100940622F5E70095FBE7009533
:10276000ECE770B51E460C460546DA4BDDE9040180
:1027700008331A551A1D22F81460083222F8140082
:10278000181F11B10022025507E001210155002256
:1027900021462846FFF7C4FF314644B1012C08D03A
:1027A000022C08D1E868BDE870400EF682BD68686A
:1027B000F9E7A868F7E770BD2DE9FC470646C5486C
:1027C0000D461C30144630F81510A14240D020F8B8
:1027D0001540012229463046FFF7A2FF4FF49679B3
:1027E0004FF4FA7740F6B83A4FF0640895B1012DEE
:1027F00043D0022D2CD1F0680EF66FFD002C27D0AF
:10280000B4F5005F24D13B460222CDE900382946C9
:1028100030461BE070680EF660FD0021082C3DD0AC
:1028200006DC002C14D0012C14D0042C10D135E07F
:10283000102C15D0202C19D0402C09D1CDF80080B7
:102840006423032201213046CDF80480FFF789FF7D
:10285000BDE8FC87CDE900713B46FF223046F5E735
:10286000CDE9008164230F223046EFE76423032281
:1028700029463046CDE90089E8E7B0680EF62DFD1F
:10288000002CE5D0B4F5807F08D0B4F5007FDFD10F
:1028900030780007DCD43B46FF22B6E7CDE900796B
:1028A0005346012229463046D0E72DE9F04701245E
:1028B00006460023254605FA03F020435B1CDBB2E5
:1028C000C4B2032BF7D33088904308438249308049
:1028D0000A8890423BD0DFF804920880002501F17D
:1028E0003C0701F14C08E0070BD037F81520307891
:1028F00032EA000005D100213046FFF75DFF24F0E9
:102900000104A0070DD5308838F8152000F4706058
:1029100032EA000005D101213046FFF74DFF24F0D7
:10292000020460070DD5308839F8152000F4704096
:1029300032EA000005D102213046FFF73DFF24F0C6
:102940000404002C03D06D1CEDB2082DCBD3BDE8E0
:10295000F0872DE9F041044640680EF6BEFC5D4D5F
:10296000083505F11406287888B12F1F3878A0B1F2
:10297000012200212046FFF7D3FE0020387005F128
:102980000C000188C1B160680EF693FC1BE0328830
:102990002046BDE8F041002187E70022114620468D
:1029A000FFF7BEFE012038704B480C30018860688C
:1029B000BDE8F0410EF67DBC287820B932880021B0
:1029C0002046FFF772FF2878401EFE2800D22870AC
:1029D000BDE8F0812DE9F041044680680EF67DFCEB
:1029E0003D4D083505F11406687888B12F1F7878B9
:1029F000A0B1012211462046FFF792FE0020787018
:102A000005F10C004188C1B1A0680EF652FC1BE034
:102A100072882046BDE8F041002146E700220121EE
:102A20002046FFF77DFE012078702A480C3041884F
:102A3000A068BDE8F0410EF63CBC687820B9728809
:102A400000212046FFF731FF6878401EFE28BFD2E4
:102A50006870BDE72DE9F0410446C0680EF63DFC04
:102A60001D4D083505F11406A87888B12F1FB878D8
:102A7000A0B1012202212046FFF752FE0020B870CB
:102A800005F10C008188C1B1E0680EF612FC1BE074
:102A9000B2882046BDE8F041002106E7002202216D
:102AA0002046FFF73DFE0120B8700A480C308188AF
:102AB000E068BDE8F0410EF6FCBBA87820B9B2880A
:102AC00000212046FFF7F1FEA878401EFE2800D224
:102AD000A8707DE70000688F2000948E200004908D
:102AE000200010B5044600F050F96060204610BD8B
:102AF00010B5002204461146104621F6D6F92046AC
:102B000010BD10B58AB00C462821684640F689F9F8
:102B100004EB440000EB0410012101EB40012622EC
:102B200068460FF6CCF95E48222201A90068806948
:102B3000406940F693F80AB010BD10B50446012272
:102B400000210FF6BCF92078012803D0022801D01B
:102B500000202070C1B22046BDE81040D1E710B57A
:102B600001EB410000EB011001248AB004EB4001AD
:102B7000042268460FF6A3F99DF800104A48802900
:102B800003D0002101700846D5E704700120D2E788
:102B900010B50178FFF7E3FF002806D04148006830
:102BA00001684969BDE81040084710BD70B5054689
:102BB000F8F599FC3B4E044630680168496B88473C
:102BC00018B130680168896988472068D0F8B0106A
:102BD000204688470122002128460FF693F92978DC
:102BE0002846FFF78EFF2846BDE87040D0E770B555
:102BF0000D460446F8F577FC2078A84207D02A490C
:102C00000120087025702046BDE87040CEE770BDF9
:102C1000491EC9B2EBE710B522480C468AB00168DC
:102C2000222201A88969496940F618F880208DF8A8
:102C3000000004EB440000EB0410012101EB400113
:102C4000262268460FF65EF975E770B58AB0F8F58A
:102C50004AFC04462821684640F6E3F82046FEF781
:102C6000F2FE11480F4C0025057020680168496B81
:102C7000884718B1206801688969884700240126BF
:102C800004EB440000EB041006EB400126226846EA
:102C90000FF638F9641C032CF2DB024805700AB009
:102CA00070BD988E2000828E2000488F2000184929
:102CB000C06D8989884201DC01207047002070477F
:102CC000B0F85C0080B27047007D704710B50446D4
:102CD000F8F509FC217D462903D9D0F820010D4AD9
:102CE00008E0D0F820011E2902D90A4A121F01E08B
:102CF000094A083ABDE81040032100F0D2B804495F
:102D0000C06DC989884201DC0120704700207047EE
:102D10000000C8052000CC8F2000F8B5044610F64E
:102D2000CAF810F607F9002538B100954FF4007382
:102D30000F22012160680FF6E8FC012000904FF49B
:102D4000804633460522022160680FF6DEFC0095BE
:102D500033460822012160680FF6D7FCF8BD10B594
:102D600004460FF645FD6060012010F6E8FF206084
:102D70002046FFF7D2FF204610BD704710B508204F
:102D80000EF6FAF9BDE81040E9E710B5654C606849
:102D9000002802D120688047606010BD2DE9FC4109
:102DA000002000904FF4004614460D460190ADF807
:102DB00002600FF61DFD074623462A4669460FF6B8
:102DC0008EFD3246012138460FF635FDBDE8FC8107
:102DD00008B501224068009211B140F2092301E0D8
:102DE0004FF400730F2201210FF68FFC08BDF8B5D8
:102DF00004460020009020680D46002301681A4612
:102E00000E684849B04700230522022160680FF68A
:102E100067FC20682A4601680B69012198476068B1
:102E200001B00123BDE8F040052202210FF658BC95
:102E30002DE9FF4100220E46804600920192029247
:102E400069460392FFF7D3FF9DF80000A1380628DA
:102E500006D2DFE800F0030507090507092504E0AD
:102E6000102502E0032500E0022501246F4605E05D
:102E700039194046FFF7BBFF641CE4B2AC42F7D3FC
:102E80009DF800000A21B1EB101F08D110226946FD
:102E900030463FF6E3FE012004B0BDE8F08100209B
:102EA000FAE72DE9F843064600200090306888468E
:102EB0001746016800231A460C681A49A0470123E7
:102EC0000822194670680FF60BFC052021F6D4FB8A
:102ED00000244FF4641515E0D5F8180120F0200007
:102EE000C5F8180130683A1901688B6801219847C4
:102EF000D5F8180140F02000C5F818011E2021F671
:102F0000BBFB641C4445E7DB052021F6B5FB70687C
:102F100001B00023BDE8F043082201210FF6E0BB19
:102F20000000D08F2000400D0300406D704710B5A9
:102F3000806908F65AFA002800D0012010BD10B5AB
:102F400000F005F8BDE810400EF63AB9000010B5E3
:102F50000949016000F59270FFF7CAFD0838FFF7D4
:102F600017FB1038FFF7D3FBBDE81040A0F58670C3
:102F7000F9F509B80000A08B20000349097809B1D0
:102F800000207047FEF74ABC0000C48E200010B538
:102F90000446C06B0168096988470078E02820462C
:102FA00003D0BDE81040F9F579BCBDE81040FFF74B
:102FB00042B92DE9F8430F46089C00941D46164679
:102FC00080461978FFF7DCF82B46324639464046F2
:102FD0000094F9F59EF8BDE8F883024901480860BD
:102FE00070473968200000042000037D09D70000E5
:102FF000050A00000000D70001053503191000D7AD
:1030000000040F350D3506190100090001350319BB
:103010000001D70005053503191002D700060B354E
:103020000909656E09006A090100D700090A350817
:103030003506190100090100D7010031252F427220
:103040006F6164636F6D20426C7565746F6F746837
:1030500020576972656C657373204B6579626F6187
:1030600072642053445020536572766572D7010113
:103070000A25084B6579626F617264D702000535D5
:10308000030901007D16D70000050A00010000D7E2
:103090000001053503191124D700040F350D35063D
:1030A0001901000900113503190011D70005053574
:1030B00003191002D700060B350909656E09006A6D
:1030C000090100D700090A3508350619112409013C
:1030D00001D7000D11350F350D3506190100090016
:1030E000133503190011D701003F253D42726F616E
:1030F00064636F6D20426C7565746F6F74682057E0
:103100006972656C65737320204B6579626F6172BB
:10311000642020202020202020202020202020206B
:10312000202020202020202020D701010A25084B24
:103130006579626F617264D7010212251042726F65
:103140006164636F6D20436F72702E2020D702017F
:1031500003090111D70202020840D7020302082125
:10316000D70204022801D70205022801D70206FF70
:10317000014E36014B36014808222601430501095C
:1031800006A101850175019508050719E029E715D4
:1031900000250181029501750881039505750105DA
:1031A000081901290591029501750391039506758A
:1031B00008150026FF000507190029FF810005FFFB
:1031C0000903750895018102C0050C0901A101855B
:1031D0000215002501750195120A94010A92010A4F
:1031E00083010A23020A8A010A82010A21020A24AF
:1031F000020A25020A26020A270209B609B509B7FA
:1032000009B009E909EA09E281029501750681031D
:10321000C0050C0901A1018508950175101500264E
:10322000FF0319002AFF038100C0050C0901A10159
:10323000850305010906A10205060920150025647C
:10324000750895018102C0C005010980A1018504AE
:103250001500250175019501098281029501750707
:103260008103C0050C0901A10185FF0506950175C3
:103270000219242926810275068101C0050109066B
:10328000A101850C0507150025011900297075019C
:1032900095788102C005010903A10185B1A100153E
:1032A0000026FF0009B8750895298100C085B2A1E4
:1032B000009529750809F2150026FF009102C0C08B
:1032C000D702070A35083506090409090100D702A3
:1032D00009022801D7020A022801D7020C030913A8
:1032E00000D7020D022800D7020E0228017D0DD75B
:1032F0000000050A00010001D7000105350319127D
:1033000000D700040F350D350619010009000135FD
:1033100003190001D700060B350909656E09006A1B
:10332000090100D700090A350835061912000901FC
:1033300000D7010031252F42726F6164636F6D20E9
:10334000426C7565746F6F746820576972656C653F
:103350007373204B6579626F61726420506E5020E8
:10336000536572766572D701010A25084B6579624B
:103370006F617264D7020003090103D702010309D8
:1033800005ACD702020309024FD702030309011B50
:10339000D70204022801D702050309000200000930
:1033A00000000000000000000000DB040100F50444
:1033B00001007942010083420100934201004D4621
:1033C000010017470100A9420100C7420100BB43A9
:1033D0000100E95501000F05010055050100894371
:1033E000010089050100A9430100AF4301003946EE
:1033F0000100AB050100B3050100574C0100654316
:1034000001005379200057792000C1050100FF0514
:1034100001000F0601004F430100B5430100D943ED
:103420000100057B2000BF4501001D460100FD464F
:1034300001000D47010033470100394701003F47B4
:103440000100B5470100D54701002D4801004B4858
:103450000100C74801000949010061490100BD4957
:103460000100654A01007F4A0100C54A0100C34BC3
:103470000100F14B01000B4C0100254C0100814C77
:103480000100934C0100A54C0100A94C0100AD4C7A
:103490000100014D01008D4D0100BF4D0100ED4DBA
:1034A0000100F74D0100134E0100314E01003D4E69
:1034B0000100474E01004D4E0100534E0100594E90
:1034C00001005F4E0100934E01009579200065795F
:1034D0002000DD500100FF7920001B5201006352E3
:1034E00001008B520100D9520100FB520100677AA2
:1034F0002000B5540100115501004D5501008755BC
:1035000001001B560100AB560100295701005F570F
:103510000100DD570100E55701000B5801009358E9
:103520000100D958010061590100F15901005B5AAD
:1035300001005F5A0100E55A0100475B01009F5BF3
:103540000100F55B0100F95B0100FD5B0100015C1E
:103550000100055C01000B5C0100515C0100595C3D
:103560000100A15C0100957A2000D95D0100275E71
:1035700001004F5F0100A35F0100CF5F01002F60DA
:103580000100F16001003F610100976101001562D7
:103590000100396201006962010025852000218552
:1035A0002000000000000000000045852000358557
:1035B0002000136B2000D16F2000F30C0000FD0CE5
:1035C0000000030D0000D9150000150D00002B0DA3
:1035D00000001F160000D56A20000917000099A3FB
:1035E0000400311700007F17000087170000FB0D53
:1035F0000000070E0000090E00000B0E00000D0E6B
:103600000000190E0000FB6E2000E56B2000FB1788
:103610000000D91700000D0B0000C90F0000F90FC2
:10362000000037100000A3180000A5100000A9102A
:10363000000093702000D91000000D1100002B1124
:1036400000009B110000CB110000E3110000136E7D
:1036500020004B1C0000E57020009D6F20005319D6
:10366000000003732000ED1A0000A16F2000976B8B
:1036700020002D6C2000E57220007F1D0000431EFD
:103680000000931E0000951E0000971E0000231FDF
:103690000000251F0000271F00003F1F0000671FBC
:1036A0000000B5722000E77120001F7220007772C1
:1036B0002000812000009720000099200000AF200A
:1036C0000000D32000002F2100003D2100005F21D9
:1036D000000083210000A1210000B3210000D521BA
:1036E000000029220000A9220000C3220000E722D6
:1036F0000000F522000017230000212300005F23B3
:1037000000006323000000000000000000006F7450
:10371000200095742000136B2000D16F2000F30C63
:103720000000FD0C0000030D0000D9150000150D70
:1037300000002B0D00001F160000D56A2000A9858F
:10374000200099A30400311700007F17000087179D
:103750000000FB0D0000070E0000090E00000B0E1C
:1037600000000D0E0000190E0000FB6E2000E56B3E
:103770002000FB170000D91700000D0B0000C90F37
:103780000000F90F000037100000A3180000A5107A
:103790000000A910000093702000D91000000D1146
:1037A00000002B1100009B110000CB110000E31161
:1037B0000000718520004B1C0000E57020009D6F0B
:1037C00020005319000003732000ED1A0000A16FC0
:1037D0002000976B20002D6C2000E57220007F1DDB
:1037E0000000431E000085852000951E0000971EE6
:1037F0000000231F0000251F0000271F00003F1F9F
:103800000000671F0000B5722000E77120001F72E2
:10381000200077722000812000009720000099206E
:103820000000AF200000D32000002F2100003D2128
:1038300000005F21000083210000A1210000B321CE
:103840000000D521000029220000A9220000C32287
:103850000000E7220000F5220000172300002123CA
:1038600000005F23000063230000010203040599A8
:10387000010504030201D0CAB502487BB50200006D
:103880000000D88F20003C0000000A5C01808E20E0
:10389000000000000000000000B1000000B65A0067
:1038A00000B65A0700000000000000000000000001
:1038B0000000000000000000000000000000000008
:1038C0000000000000337120000000000081712022
:1038D000000000000000000000000000000000B137
:1038E0000000000000ED7820000000000000000053
:1038F0000000000000B1244B65794368726F6E20B0
:103900004B342020202020202020202020000000D8
:10391000000000B125050AC00232303139313032A1
:1039200035B14000020000000000000000000099D6
:1039300001B1290056000001020304050607080929
:103940000A0B0C0D0E0F1011121314151718191A5B
:103950001B1C1D1E221F20000000000000B6517617
:1039600000B6517700B6517800B65179003B7B2004
:103970000000000000FF0000000000000000000048
:103980000000000000000000000000000000000037
:1039900000000000000000000000000000497F203F
:1039A0000000000000CB7F2000000000004B8020C2
:1039B0000000000000080040000200040020000198
:1039C00000100000000001000200000000000000E4
:1039D0000000000000B65A0100B65A0200B65A04B0
:1039E0000073832000000000000B0400ED6720003E
:0339F000FE0000D6
:00000001FF
